:100000006F005074000000004A0100004C01000025
:1000100000000000000000000000000000000000E0
:1000200000000000000000000000000000000000D0
:10003000420F000000000000420F0000000000001E
:10004000420F0000420F0000420F0000420F00006C
:10005000420F0000420F0000420F0000420F00005C
:10006000420F0000420F0000420F0000420F00004C
:10007000420F0000420F0000420F0000420F00003C
:10008000420F0000420F0000420F0000420F00002C
:10009000420F0000420F00005C0100000000000061
:1000A000511126C022C206C4828282441244A24058
:1000B000310182802A86014593F6150091C232955E
:1000C00085810606F5F9828000000000634E050276
:1000D00063C305042E86AA857D5515C285466378BF
:1000E000B6006356C00006068606E36CB6FE014500
:1000F00063E4C500918D558D85820582F5FA828075
:100100008682C93F2E8582823305A04063D70500D1
:10011000B305B040C1B7B305B0408682653F330533
:10012000A0408282868263C70500634905005D376F
:100130002E858282B305B040E35B05FE3305A04007
:10014000513F3305B0408282000001A0B707EFBEE7
:1001500037E700E0938707083CC7FDBF85453705B3
:100160000040EF10C00B85476317F5028545370542
:100170000040EF10400CB707002003C787039387A8
:10018000870301CF01470146930500083715014059
:1001900098A3EF00106C7300203005470546EDB7BB
:1001A000EFF21FF011651301C1FD8545130505022E
:1001B00002C402C602C802CA02CC02CE02D002C0E9
:1001C00002C2EF00907A371401408D479304000279
:1001D0003EC62C00E1471305044064843EC8EF008E
:1001E000F05E930700047C842C00914713050440C3
:1001F0003EC8EF00B05D89673744014093870758D8
:100200004C083ECA13050480B70708003ECE02CC56
:1002100023100102EF10E00285475C810A858547C3
:100220003EC26480EF00F063854513050480EF1043
:10023000000E1301410295BDEFF29FE631112E84AD
:10024000AA8485450545EF0030742C003705004031
:10025000648660842315010023170100EF00B07449
:100260000546854537050040EF00507A93076052F8
:100270007C8095475C810A8585473EC2EF00705EB1
:10028000854537050040EF00F076510139BDEFF2AA
:100290003FE111118545414502C802CA02CCEF0079
:1002A000D06C854513050002EF00306C0D449307B8
:1002B0000008C1440C0837150140FC803EC626CC1E
:1002C00022CAEF00B05026CCB714014005460C08F6
:1002D00013850440F08032C422CAEF00304F9146AB
:1002E000C1470C0813850440F48036C23ECC22CAB4
:1002F000EF00D04D2147C1470C0813850440F8801A
:100300003AC03ECC22CAEF00704CC147FC800C08BA
:10031000C147138504403ECC22CAEF00304B224631
:10032000930780040C0837150140F0803ECC22CAA8
:10033000EF00D0490946930780040C0837150140A7
:10034000F0803ECC22CAEF007048924693078004AA
:100350000C0837150140F4803ECC22CAEF0010474C
:100360000247930780040C0837150140F8803ECC03
:1003700022CAEF00B045B2470C0813850440FC8048
:10038000930780043ECC22CAEF0050441305800C32
:10039000EF00B07D1385044005468545EF00704BA6
:1003A0001385044005469145EF00B04A138504408B
:1003B0000546A145EF00F0490546C14513850440B7
:1003C000EF0030497101D5B1EFF29FCD05453744BB
:1003D0000140EF0090799305E00F13050480EF00D2
:1003E00070740545EF0070789305E00F13050480E5
:1003F000EF0050730545EF005077814513050480E9
:10040000EF0050720545EF00507693054009130543
:100410000480EF0030710545EF00307591451305FC
:100420000480EF0030700545EF00307485451305FA
:100430000480EF00306F0545EF00307385451305EC
:100440000480EF00306E0545EF0030729305D00F49
:1004500013050480EF00106D0545EF001071B1B178
:10046000EFF21FC4C547630DF54663CCA70AA94741
:100470006309F55863C8A7006308056A9947630BC9
:10048000F56025B1B1476304F54EBD47E31BF5FEAA
:10049000374401409305E00F13050480EF00906896
:1004A0000545EF00906C9305E00F13050480EF0005
:1004B00070670545EF00706B814513050480EF0000
:1004C00070660545EF00706A9305400913050480C6
:1004D000EF0050650545EF00506981451305048024
:1004E000EF0050640545EF00506881451305048016
:1004F000EF0050630545EF005067930500041305B6
:100500000480EF0030620545EF0030669D4513051D
:100510000480EF0030610545EF003065930510025F
:10052000C5A293078002630DF52863C0A70AD147CF
:100530006300F532F947E316F5F4374401409305BB
:10054000E00F13050480EF00F05D0545EF00F0615A
:100550009305E00F13050480EF00D05C0545EF0024
:10056000D060814513050480EF00D05B0545EF00A6
:10057000D05F9305400913050480EF00B05A05458C
:10058000EF00B05E814513050480EF00B0590545CA
:10059000EF00B05D814513050480EF00B0580545BC
:1005A000EF00B05C9305000613050480EF00905740
:1005B0000545EF00905BCD4513050480EF00905694
:1005C0000545EF00905AC14525AA93070005630031
:1005D000F5169307000A630EF5089307C003E312AC
:1005E000F5EA374401409305E00F13050480EF005E
:1005F00070530545EF0070579305E00F1305048015
:10060000EF0050520545EF00505681451305048018
:10061000EF0050510545EF00505593054009130573
:100620000480EF0030500545EF003054814513053C
:100630000480EF00304F0545EF003053814513052E
:100640000480EF00304E0545EF0030528145130520
:100650000480EF00304D0545EF00305193056003F5
:1006600013050480EF00104C0545EF001050954530
:1006700041A8374401409305E00F13050480EF00C3
:10068000704A0545EF00704E9305E00F1305048096
:10069000EF0050490545EF00504D8145130504809A
:1006A000EF0050480545EF00504C930540091305F5
:1006B0000480EF0030470545EF00304B81451305BE
:1006C0000480EF0030460545EF00304A81451305B0
:1006D0000480EF0030450545EF00304981451305A2
:1006E0000480EF0030440545EF0030489305400892
:1006F00013050480EF0010430545EF0010478545C2
:1007000013050480EF0010420545EF0010468145B7
:1007100013050480EF0010410545EF0010459305D7
:10072000D00F13050480EF00F03F793999BB3744AF
:1007300001409305E00F13050480EF00B03E05452E
:10074000EF00B0429305E00F13050480EF00903DE9
:100750000545EF009041814513050480EF00903C72
:100760000545EF0090409305400913050480EF0014
:10077000703B0545EF00703F814513050480EF0095
:10078000703A0545EF00703E814513050480EF0087
:1007900070390545EF00703D930500031305048093
:1007A000EF0050380545EF00503C930570051305E8
:1007B0000480EF0030370545EF00303B8D4589B7A9
:1007C000374401409305E00F13050480EF00903596
:1007D0000545EF0090399305E00F13050480EF0005
:1007E00070340545EF007038814513050480EF0033
:1007F00070330545EF0070379305400913050480F9
:10080000EF0050320545EF00503681451305048056
:10081000EF0050310545EF00503581451305048048
:10082000EF0050300545EF005034930500041305E8
:100830000480EF00302F0545EF0030339D45130550
:100840000480EF00302E0545EF0030329D454DBD50
:10085000374401409305E00F13050480EF00902C0E
:100860000545EF0090309305E00F13050480EF007D
:10087000702B0545EF00702F814513050480EF00B4
:10088000702A0545EF00702E93054009130504807A
:10089000EF0050290545EF00502D814513050480D8
:1008A000EF0050280545EF00502C814513050480CA
:1008B000EF0050270545EF00502B9305000413056A
:1008C0000480EF0030260545EF00302A9D451305D2
:1008D0000480EF0030250545EF003029D1450DB5E6
:1008E000374401409305E00F13050480EF00902387
:1008F0000545EF0090279305E00F13050480EF00F6
:1009000070220545EF007026814513050480EF0035
:1009100070210545EF0070259305400913050480FB
:10092000EF0050200545EF00502481451305048059
:10093000EF00501F0545EF0050238145130504804B
:10094000EF00501E0545EF0050228145130504803D
:10095000EF00501D0545EF005021C14513050480EF
:10096000EF00501C0545EF005020E14551BB3744D6
:1009700001409305E00F13050480EF00B01A054510
:10098000EF00B01E9305E00F13050480EF009019EF
:100990000545EF00901D814513050480EF00901878
:1009A0000545EF00901C9305400913050480EF00F6
:1009B00070170545EF00701B814513050480EF009B
:1009C00070160545EF00701A814513050480EF008D
:1009D00070150545EF007019930500051305048097
:1009E000EF0050140545EF0050189305100913054A
:1009F0000480EF0030130545EF00301793054002E7
:100A000001B3374401409305E00F13050480EF0064
:100A100070110545EF0070159305E00F1305048074
:100A2000EF0050100545EF00501481451305048078
:100A3000EF00500F0545EF005013930540091305D3
:100A40000480EF00300E0545EF003012814513059C
:100A50000480EF00300D0545EF003011814513058E
:100A60000480EF00300C0545EF00301093050004C2
:100A700013050480EF00100B0545EF00100F9D4596
:100A800013050480EF00100A0545EF00100E9305D2
:100A90008002BDB1374401409305E00F1305048087
:100AA000EF0050080545EF00500C9305E00F1305CB
:100AB0000480EF0030070545EF00300B814513053A
:100AC0000480EF0030060545EF00300A9305400929
:100AD00013050480EF0010050545EF00100981455E
:100AE00013050480EF0010040545EF001008814550
:100AF00013050480EF0010030545EF001007930570
:100B0000000813050480EF00F0010545EF00F00533
:100B10009305100313050480EF00D0000545EF0096
:100B2000D00493050005E9BE371500001305854381
:100B3000EF00100C6FF0FF94EFF28FD67111294582
:100B4000EF00B002854537150140FD292AC08945CF
:100B500037150140D52991452A8437150140ED21EB
:100B6000AA84A14537150140C521824799CB1DE4D0
:100B70009DEC1304000A11C12944228511016FF074
:100B8000CFD219C485E81304000565D91944F5B717
:100B900081EC1304C00375D13144C5B7014499EC0D
:100BA00069FD13048002D1BF69F97944F9B771F581
:100BB0005144E1B7014471F14544C1B75DFD3D4485
:100BC0006DBFEFF2EFCD9307000A2A84631DF5068F
:100BD000B714014005468545138504409D2901460B
:100BE000914513850440B5210146A1451385044074
:100BF0008D210146C14513850440A129D147631BBE
:100C0000F408B71401400546854513850440912139
:100C100001469145138504402D290546A1451385BC
:100C2000044005290146C145138504401D2199470B
:100C3000631BF40837140140014685451305044041
:100C400009290546B1AA93070005631BF500B714EF
:100C500001400146854513850440E52E054649B708
:100C60009307C0036310F508B7140140014685459A
:100C700013850440F92E0146914513850440D12E79
:100C80000146A14513850440E9260146C145138567
:100C90000440C126C5476311F408B714014001465A
:100CA0008545138504407526054691451385044006
:100CB0004D260546A14513850440612E0146C145D8
:100CC00013850440792651E03714014005468545D7
:100CD00013050440BD2E0546914513050440952E8D
:100CE0000546E1A0930780026313F506B71401409F
:100CF0000546854513850440A92E05469145138573
:100D00000440812E0146A1451385044099260146E1
:100D1000C14513850440352EBD476318F4063714CA
:100D200001400546854513050440252605469145A5
:100D300013050440392E0546A14513050440112E24
:100D40000146C1451305044029266FF00FB6F94747
:100D5000E316F5EAB71401400146854513850440C2
:100D6000CD2C0146914513850440E5240546A14557
:100D700013850440F92C0146C14513850440D12C4C
:100D8000A947E316F4EA054629A0B1470146E3194D
:100D9000F4FE371401408545130504405D2C0146DF
:100DA00091451305044075240146A14513050440EF
:100DB0004D24054679B7EFF2AFAE05454524212A0B
:100DC0009D2BEFF0CFCCEFF0AFBD99659385F5DBB0
:100DD0001305703EEFF04FC6B7040020B13B1384FB
:100DE000C40308C0EFF0CFE70840E13B1305200340
:100DF000AD2BEDB7EFF2CFAA371402401C403707F6
:100E0000FFF8414593E717001CC05C40F98F5CC0B8
:100E10001C403707F7FE7D17F98F1CC01C403707B1
:100E2000FCFF7D17F98F1CC05C4041777D17F98F5F
:100E30005CC0B7079F001CC4BD2C1C4C93E7070285
:100E40001CCCB717014003A70740938607401377D0
:100E5000F7F023A0E74003A707401367070823A084
:100E6000E74089479CCAB7F7FF1F03C5477D930733
:100E7000F00F6304F5007D893D2CB72702409843AD
:100E8000C176FD16719B98C398431367170098C3EA
:100E9000B7170240D843D8C3D843758FD8C3D843B7
:100EA000B7060001D8C39843558F98C3984393164B
:100EB0006700E3DD06FED843B7160240719BD8C336
:100EC000D84313672700D8C32147DC42B18BE39E88
:100ED000E7FE6FF08F9DEFF2AF9C371702405C4347
:100EE000370400209146B18B130404016385D700B9
:100EF000A1466382D704B7376E01938707601CC091
:100F0000B7160240DC420840918313F7F700B70799
:100F1000002093870700BA978C23DC4293F5F50FE6
:100F200093F707083357B50081E7EFF0AF9A2A87A8
:100F300018C06FF08F975C43B777DC02938707C0C8
:100F40007DBF01A0970100209381418F138181FC17
:100F5000170500001305054F97F5FF1F9385850AB8
:100F600017F6FF1F1306860D63FAC50083220500DE
:100F700023A0550011059105E3EAC5FE17F5FF1FF3
:100F80001305C50B938501816377B5002320050008
:100F90001105E36DB5FEB7220000938202887390BD
:100FA00002308D427390428097F2FFFF9382820558
:100FB00093E2320073905230EFF0DFE397020000CB
:100FC0009382A2DF7390123473002030944593F71C
:100FD000060193F2F60081C7DC41B3E2F20083D34D
:100FE000050093F7F30FA5C303230500611122C287
:100FF00026C08147130480029304800405473316FA
:10100000F70033F7C3006312E602939527003D47CC
:101010003317B7001347F7FF33736700B395B20078
:1010200033E36500639D860050C985072147E39738
:10103000E7FC124423206500824421018280E3966C
:1010400096FE10C9DDB7828008456D8D3335A0004E
:10105000828019C20CC982804CC9828023A4A180DD
:10106000828083A68180854718216390F6021C3117
:10107000639CD7023C219A0793E707F8B7E600E0A4
:1010800093F7F70FBA962380F6408546935757009B
:101090003397E600544189CE938707048A07B7E661
:1010A00000E0B69798C38280EDF33C219A07F9B728
:1010B00093870706E5B7371702401C430E0593F7E1
:1010C00077F05D8D08C38280EFE29FFD3717024005
:1010D0005C4391462A84B18B6385D700A146638027
:1010E000D708B7376E01938707601CC0B716024058
:1010F000DC42918313F7F700B7070020938787023C
:10110000BA978C23DC42184093F5F50F93F7070844
:101110003355B70081E73A85EFE0DFFB48C008C4EC
:1011200048C4B7170240DC438D46AD83FD8B13D70F
:1011300037008A07F18BD98F13F6370113F7370081
:1011400063F4C600138747FFB70700209387470162
:10115000BA978C23EFE01FF808C86FE01FF55C43D7
:10116000B777DC02938707C049B799C537170240A4
:101170001C4F5D8D08CF8280B7170240984F1345F2
:10118000F5FF798D88CF828099C5371702405C4F73
:101190005D8D48CF8280B7170240D84F1345F5FFC9
:1011A000798DC8CF82801E2137370140130707C0D1
:1011B000C207C1836306E500370700406316E500F8
:1011C000BA2193F7F7F8D98FFA2193F7F7CFC2072F
:1011D000C183D98F1EA1DE215EB59E211EB5B73712
:1011E0000140938707C06314F5009C251EB985470D
:1011F0005EA982801E2189C593E717001EA1828007
:10120000C207C183F99BC207C183CDBF5E2501C65A
:10121000DD8D4EA5828093C5F5FFFD8DDDBF1E29B6
:101220004A25ED8F4205418189C76D8D3335A00078
:1012300082800145828093C5F5FFC205C1810EA958
:101240008280EFE2FFE51629F577FD17F58FF6218D
:10125000DA252111D58F1EA95625FD779387379F53
:10126000F58FD6212A842EC0D58F9625D58FB62509
:10127000D58F5EA55E29C207C18393F7F7CF5D8F37
:101280005AA948009135B7470140938707808245A6
:101290006312F406C2475A24139517003E9542077D
:1012A0000E0541873E958C41635807048605EFE0A3
:1012B0007FE2930540062AC0EFE0DFE18247931406
:1012C0004500930540063E85EFE09FE35E24C2079C
:1012D000C18763D507020E05930540061305250354
:1012E000EFE05FDF1D89C98CC204C18006A46101E3
:1012F0006FE0BFDBB24745B78A0555BF12059305BE
:10130000400613052503EFE0FFDC3D89E9BF91C5E9
:101310005E250967D98F5EA582805A25F977FD176A
:10132000F98FD5BF93F5F51F4EA182800A216D8DEF
:101330003335A0008280EFE2BFD6B707002003A5B7
:101340000701B7157A0093850520EFE0BFD8137524
:10135000F50F2387A18093175500898F8A073E9543
:101360000E052396A1806FE05FD4EFE27FD337F4C0
:1013700000E05C40AA85F99B5CC003D5C180EFE02A
:101380007FD308C8232404001C4093E717001CC027
:10139000B7F700E0D843058B75DF9843799B98C376
:1013A0006FE0BFD0EFE2DFCF7111AE840144635D27
:1013B000C402B7470140138707803A8593050004AC
:1013C00032C0AD37B747014013870780024675D555
:1013D0003387840083050700138507800504C20551
:1013E000C18189370246E1B7328511016FE0FFCB39
:1013F000411122C426C206C61C21AA840144DC81F4
:1014000083073100050491EFA94793053100054694
:101410000145DC81413F2285B24022449244410192
:1014200082800546930531000145AD3FB3878400B6
:101430009C23DC81F1B700004E6F20646174610071
:101440000102030405060708010203040506070854
:10145000006CDC020204060804080C1008101820B6
:101460001020304020406080010203040506070878
:08147000010203040506070850
:00000001FF
