:100000006F007011000000004A0100004C01000068
:1000100000000000000000000000000000000000E0
:1000200000000000000000000000000000000000D0
:100030001409000000000000140900000000000086
:10004000140900001409000014090000140900003C
:10005000140900001409000014090000140900002C
:10006000140900001409000014090000140900001C
:10007000140900001409000014090000140900000C
:1000800014090000140900001409000014090000FC
:1000900014090000140900005C01000000000000C9
:1000A000511126C022C206C4828282441244A24058
:1000B000310182802A86014593F6150091C232955E
:1000C00085810606F5F9828000000000634E050276
:1000D00063C305042E86AA857D5515C285466378BF
:1000E000B6006356C00006068606E36CB6FE014500
:1000F00063E4C500918D558D85820582F5FA828075
:100100008682C93F2E8582823305A04063D70500D1
:10011000B305B040C1B7B305B0408682653F330533
:10012000A0408282868263C70500634905005D376F
:100130002E858282B305B040E35B05FE3305A04007
:10014000513F3305B0408282000001A0B707EFBEE7
:1001500037E700E0938707083CC7FDBF85453705B3
:100160000040EF00F02885476317F5028545370505
:100170000040EF007029B707002003C7870393876B
:10018000870301CF01470146930500083715014059
:1001900098A3EF0030097300203005470546EDB7FE
:1001A000EFF21FF011651301C1FD8545130505022E
:1001B00002C402C602C802CA02CC02CE02D002C0E9
:1001C00002C2EF00B017371401408D4793040002BC
:1001D0003EC62C00E1471305044064843EC8EF008E
:1001E000007C930700047C842C0091471305044095
:1001F0003EC8EF00C07A8567374401409387072CDB
:100200004C083ECA13050480B70708003ECE02CC56
:1002100023100102EF00102085475C810A85854785
:100220003EC26480EF001001854513050480EF0095
:10023000302B1301410295BDEFF29FE631112E8460
:10024000AA8485450545EF0050112C003705004074
:10025000648660842315010023170100EF00D0118C
:100260000546854537050040EF007017930760523B
:100270007C8095475C810A8585473EC2EF00807B84
:10028000854537050040EF001014510139BDEFF2EC
:100290003FE111118545414502C802CA02CCEF0079
:1002A000F009854513050002EF0050090D4493073E
:1002B0000008C1440C0837150140FC803EC626CC1E
:1002C00022CAEF00C06D26CCB714014005460C08C9
:1002D00013850440F08032C422CAEF00406C91467E
:1002E000C1470C0813850440F48036C23ECC22CAB4
:1002F000EF00E06A2147C1470C0813850440F880ED
:100300003AC03ECC22CAEF008069C147FC800C088D
:10031000C147138504403ECC22CAEF004068224604
:10032000930780040C0837150140F0803ECC22CAA8
:10033000EF00E0660946930780040C08371501407A
:10034000F0803ECC22CAEF0080659246930780047D
:100350000C0837150140F4803ECC22CAEF0020641F
:100360000247930780040C0837150140F8803ECC03
:1003700022CAEF00C062B2470C0813850440FC801B
:10038000930780043ECC22CA192D1305800CEF0080
:10039000501A1385044005468545EF00A068138573
:1003A000044005469145EF00E0671385044005468B
:1003B000A145EF0020670546C14513850440EF00C5
:1003C00060667101DDB1EFF2BFCDB707E17A51117F
:1003D0009387E7EF0D473EC2788423100100D14791
:1003E000630CF50E63C9A702B1476302F51063CA37
:1003F000A7009947630AF510A9476301F510310179
:100400006DB1BD47630FF50CC547E31AF5FEC14753
:10041000DC80E1473DA89307C0036304F50A63CE7F
:10042000A700F9476304F50A93078002E319F5FC76
:10043000930700747C809D4729A893070005630CEF
:10044000F5009307000AE31CF5FA930740F8DC80F7
:1004500085475C8131A09567938707737C805881BD
:1004600001445C00A2978C233745014013050580A9
:10047000EF0070080945EF00D00B05049947E3121F
:10048000F4FE0144B30781008C23B7440140138577
:100490000480EF0050060945EF00B00905048D47C0
:1004A000E312F4FE814513850480EF00D004094572
:1004B000EF0030089305D00F13850480EF00B003E0
:1004C0003DBF93076003DC80954761B785679387DD
:1004D00007367C80C147B5BF930700747C80488194
:1004E00041B7930700747C80930710029DB7E577AE
:1004F000938707157C8093074002A1BF9307007480
:100500007C8093078002B1B78D67938707187C8042
:10051000930700053DBFEFF2BFB871112945EF0009
:100520005001854537150140CD292AC08945371529
:100530000140E52191452A8437150140F929AA8413
:10054000A14537150140D129824791CB15E495EC9F
:100550001304000A11C1294422851101B9B619C436
:1005600085E8130400056DD91944FDB781EC130427
:10057000C0037DD13144CDB7014499EC71FD130422
:100580008002D9BF71F97944C1BF79F55144E9B707
:10059000014479F14544C9B761F13D4475BFEFF2BB
:1005A0003FB09307000A2A84631DF506B714014083
:1005B0000546854513850440B521014691451385BF
:1005C00004408D210146A14513850440A12901461F
:1005D000C14513850440B921D147631BF408B71402
:1005E000014005468545138504402D290146914566
:1005F0001385044005290546A145138504401D21A6
:100600000146C1451385044031299947631BF4080D
:100610003714014001468545130504402121054654
:10062000A9AA93070005631BF500B7140140014612
:10063000854513850440FD26054649B79307C00349
:100640006310F508B7140140014685451385044041
:10065000D12E0146914513850440E9260146A14566
:1006600013850440C1260146C145138504405D2E13
:10067000C5476311F408B714014001468545138549
:1006800004404D260546914513850440612E0546DC
:10069000A1451385044079260146C14513850440D0
:1006A000512651E0371401400546854513050440A5
:1006B000952E0546914513050440AD260546D9A063
:1006C000930780026312F506B7140140054685457D
:1006D00013850440812E05469145138504409926D3
:1006E0000146A14513850440352E0146C1451385B9
:1006F00004400D2EBD476317F4063714014005462C
:10070000854513050440392E0546914513050440DF
:10071000112E0546A1451305044029260146C14571
:1007200013050440012651B2F947E317F5EAB7145F
:1007300001400146854513850440ED24014691455D
:1007400013850440C5240546A14513850440D92CD2
:100750000146C14513850440F124A947E317F4EA93
:10076000054629A0B1470146E319F4FE37140140BC
:100770008545130504407D24014691451305044039
:1007800055240146A14513050440692C054641BF87
:10079000EFF21F910545612C012A9523CD3C0934C8
:1007A00099659385F5DB1305703E7934B704002015
:1007B0009D331384C40308C039310840CD33130579
:1007C000800C852BF5B7EFF2BF8D371402401C402B
:1007D0003707FFF8414593E717001CC05C40F98FCD
:1007E0005CC01C403707F7FE7D17F98F1CC01C400A
:1007F0003707FCFF7D17F98F1CC05C4041777D17E0
:10080000F98F5CC0B7079F001CC4BD2C1C4C93E73C
:1008100007021CCCB717014003A707409386074087
:100820001377F7F023A0E74003A7074013670708F3
:1008300023A0E74089479CCAB7F7FF1F03C5477D40
:100840009307F00F6304F5007D893D2CB727024024
:100850009843C176FD16719B98C3984313671700A0
:1008600098C3B7170240D843D8C3D843758FD8C3AD
:10087000D843B7060001D8C39843558F98C398430F
:1008800093166700E3DD06FED843B7160240719B5E
:10089000D8C3D84313672700D8C32147DC42B18BA4
:1008A000E39EE7FE6FF07F80EFF28FFF3717024085
:1008B0005C43370400209146B18B13040401638527
:1008C000D700A1466382D704B7376E0193870760CC
:1008D0001CC0B7160240DC420840918313F7F700B2
:1008E000B707002093870700BA978C23DC4293F563
:1008F000F50F93F707083357B50081E7EFF08FFD49
:100900002A8718C06FF06FFA5C43B777DC029387D1
:1009100007C07DBF01A097010020938121F21381C0
:1009200081FC170500001305A54497F5FF1F93856B
:10093000656D17F6FF1F1306667063FAC500832204
:10094000050023A0550011059105E3EAC5FE17F542
:10095000FF1F1305A56E938501816377B5002320E2
:1009600005001105E36DB5FEB722000093820288F1
:10097000739002308D427390428097F2FFFF938212
:10098000626893E2320073905230EFF0DFE3970237
:100990000000938222E0739012347300203094455B
:1009A00093F7060193F2F60081C7DC41B3E2F2004F
:1009B00083D3050093F7F30FA5C30323050061114B
:1009C00022C226C081471304800293048004054795
:1009D0003316F70033F7C3006312E602939527003E
:1009E0003D473317B7001347F7FF33736700B395DD
:1009F000B20033E36500639D860050C98507214737
:100A0000E397E7FC124423206500824421018280A1
:100A1000E39696FE10C9DDB7828008456D8D3335AB
:100A2000A000828019C20CC982804CC9828023A494
:100A3000A180828083A68180854718216390F60279
:100A40001C31639CD7023C219A0793E707F8B7E66D
:100A500000E093F7F70FBA962380F6408546935748
:100A600057003397E600544189CE938707048A07DD
:100A7000B7E600E0B69798C38280EDF33C219A0771
:100A8000F9B793870706E5B7371702401C430E05F1
:100A900093F777F05D8D08C38280EFF26FE0371730
:100AA00002405C4391462A84B18B6385D700A146FE
:100AB0006380D708B7376E01938707601CC0B716ED
:100AC0000240DC42918313F7F700B70700209387B9
:100AD0008702BA978C23DC42184093F5F50F93F701
:100AE00007083355B70081E73A85EFF0AFDE48C01D
:100AF00008C448C4B7170240DC438D46AD83FD8B64
:100B000013D737008A07F18BD98F13F6370113F704
:100B1000370063F4C600138747FFB70700209387A9
:100B20004701BA978C23EFF0EFDA08C86FF0EFD7E0
:100B30005C43B777DC02938707C049B799C537177D
:100B400002401C4F5D8D08CF8280B7170240984F3E
:100B50001345F5FF798D88CF828099C537170240FC
:100B60005C4F5D8D48CF8280B7170240D84F134548
:100B7000F5FF798DC8CF82801E21373701401307DA
:100B800007C0C207C1836306E5003707004063164C
:100B9000E500BA2193F7F7F8D98FFA2193F7F7CF49
:100BA000C207C183D98F1EA1DE215EB59E211EB56D
:100BB000B7370140938707C06314F5009C251EB921
:100BC00085475EA982801E2189C593E717001EA173
:100BD0008280C207C183F99BC207C183CDBF5E2556
:100BE00001C6DD8D4EA5828093C5F5FFFD8DDDBF6D
:100BF0001E294A25ED8F4205418189C76D8D333508
:100C0000A00082800145828093C5F5FFC205C181A5
:100C10000EA98280EFF2CFC81629F577FD17F58F60
:100C2000F621DA252111D58F1EA95625FD77938748
:100C3000379FF58FD6212A842EC0D58F9625D58F44
:100C4000B625D58F5EA55E29C207C18393F7F7CF7E
:100C50005D8F5AA948009135B747014093870780B7
:100C600082456312F406C2475A24139517003E9535
:100C700042070E0541873E958C416358070486055F
:100C8000EFF04FC5930540062AC0EFF0AFC482478E
:100C900093144500930540063E85EFF06FC65E2431
:100CA000C207C18763D507020E05930540061305E9
:100CB0002503EFF02FC21D89C98CC204C18006A490
:100CC00061016FF08FBEB24745B78A0555BF120567
:100CD0009305400613052503EFF0CFBF3D89E9BF1B
:100CE00091C55E250967D98F5EA582805A25F9775F
:100CF000FD17F98FD5BF93F5F51F4EA18280EFF256
:100D00002FBAB707002003A50701B7157A0093850E
:100D10000520EFF02FBC1375F50F2387A1809317E3
:100D20005500898F8A073E950E052396A1806FF0A6
:100D3000CFB7EFF2EFB637F400E05C40AA85F99B3D
:100D40005CC003D5C180EFF0EFB608C823240400CF
:100D50001C4093E717001CC0B7F700E0D843058B91
:0C0D600075DF9843799B98C36FF02FB4A7
:100D6C00010203040506070801020304050607082F
:100D7C00006CDC020204060804080C100810182091
:100D8C001020304020406080010203040506070853
:080D9C0001020304050607082B
:00000001FF
