:100000006F00901C000000004A0100004C0100003D
:1000100000000000000000000000000000000000E0
:1000200000000000000000000000000000000000D0
:10003000C609000000000000C60900000000000022
:10004000C6090000C6090000C6090000C609000074
:10005000C6090000C6090000C6090000C609000064
:10006000C6090000C6090000C6090000C609000054
:10007000C6090000C6090000C6090000C609000044
:10008000C6090000C6090000C6090000C609000034
:10009000C6090000C60900005C0100000000000065
:1000A000511126C022C206C4828282441244A24058
:1000B000310182802A86014593F6150091C232955E
:1000C00085810606F5F9828000000000634E050276
:1000D00063C305042E86AA857D5515C285466378BF
:1000E000B6006356C00006068606E36CB6FE014500
:1000F00063E4C500918D558D85820582F5FA828075
:100100008682C93F2E8582823305A04063D70500D1
:10011000B305B040C1B7B305B0408682653F330533
:10012000A0408282868263C70500634905005D376F
:100130002E858282B305B040E35B05FE3305A04007
:10014000513F3305B0408282000001A0B707EFBEE7
:1001500037E700E0938707083CC7FDBF85453705B3
:100160000040EF00103485476317F50285453705D9
:100170000040EF009034B707002003C78703938740
:10018000870301CF01470146930500083715014059
:1001900098A3EF0050147300203005470546EDB7D3
:1001A000EFF21FF011651301C1FD8545130505022E
:1001B00002C402C602C802CA02CC02CE02D002C0E9
:1001C00002C2EF00D022371401408D479304000291
:1001D0003EC62C00E1471305044064843EC8EF008E
:1001E0003007930700047C842C00914713050440DA
:1001F0003EC8EF00F0058567374401409387072C20
:100200004C083ECA13050480B70708003ECE02CC56
:1002100023100102EF00302B85475C810A8585475A
:100220003EC26480EF00300C854513050480EF006A
:1002300050361301410295BDEFF29FE631112E8435
:10024000AA8485450545EF00701C2C003705004049
:10025000648660842315010023170100EF00F01C61
:100260000546854537050040EF0090229307605210
:100270007C8095475C810A8585473EC2EF00B006C9
:10028000854537050040EF00301F510139BDEFF2C1
:100290003FE111118545414502C802CA02CCEF0079
:1002A0001015854513050002EF0070140D449307E7
:1002B0000008C1440C0837150140FC803EC626CC1E
:1002C00022CAEF00E07826CCB714014005460C089E
:1002D00013850440F08032C422CAEF006077914653
:1002E000C1470C0813850440F48036C23ECC22CAB4
:1002F000EF0000762147C1470C0813850440F880C1
:100300003AC03ECC22CAEF00A074C147FC800C0862
:10031000C147138504403ECC22CAEF0060732246D9
:10032000930780040C0837150140F0803ECC22CAA8
:10033000EF0000720946930780040C08371501404E
:10034000F0803ECC22CAEF00A07092469307800452
:100350000C0837150140F4803ECC22CAEF00406FF4
:100360000247930780040C0837150140F8803ECC03
:1003700022CAEF00E06DB2470C0813850440FC80F0
:10038000930780043ECC22CAEF00806C1305800CDA
:10039000EF00F0251385044005468545EF00A07366
:1003A0001385044005469145EF00E0721385044033
:1003B0000546A145EF0020720546C145138504405E
:1003C000EF0060717101D5B1EFF29FCD0545374463
:1003D0000140EF00D0219305E00F13050480EF00EA
:1003E000B01C0545EF00B0209305E00F1305048015
:1003F000EF00901B0545EF00901F9305000E1305BD
:100400000480EF00701A0545EF00701E9305A007E9
:1004100013050480EF0050190545EF00501D91456C
:1004200013050480EF0050180545EF00501C85456A
:1004300013050480EF0050170545EF00501B85455C
:1004400013050480EF0050160545EF00501A930580
:10045000D00F13050480EF0030150545EF0030196B
:10046000A9B1EFF2FFC3511109E9371500001305D7
:10047000C5EBEF00302031010DB9B707E17A938762
:10048000E7EF0D473EC2788423100100D147630196
:10049000F51063CDA702B1476307F51063CEA7003F
:1004A00099476309F510A947E317F5FC9307007412
:1004B0007C809307800289A8BD476300F50EC5477D
:1004C000E31BF5FAC147DC80E1473DA89307C00371
:1004D0006305F50A63CEA700F9476305F50A93079C
:1004E0008002E31AF5F8930700747C809D4729A8E1
:1004F00093070005630CF5009307000AE31DF5F66A
:10050000930740F8DC8085475C8131A0956793872D
:1005100007737C80588101445C00A2978C23374587
:10052000014013050580EF0030080545EF00300C51
:1005300005049947E312F4FE0144B30781008C23BC
:10054000B744014013850480EF0010060545EF0015
:10055000100A05048D47E312F4FE814513850480DB
:10056000EF0090040545EF0090089305D00F138528
:100570000480EF007003893DFDBD93076003DC80BC
:10058000954759B78567938707367C80C147ADBFCC
:10059000930700747C804881BDBF930700747C8002
:1005A0009307100295B7E577938707157C8093072B
:1005B000400299BF8D67938707187C8093070005D9
:1005C000A1B7EFF2FFAD71112945EF00500285454B
:1005D00037150140E5292AC0894537150140FD211D
:1005E00091452A8437150140D521AA84A1453715A4
:1005F0000140E929824791CB15E495EC1304000AE8
:1006000011C12944228511014DB419C485E8130490
:1006100000056DD91944FDB781EC1304C0037DD1E9
:100620003144CDB7014499EC71FD13048002D9BF68
:1006300071F97944C1BF79F55144E9B7014479F1C1
:100640004544C9B761F13D4475BFEFF27FA59307FB
:10065000000A2A84631DF506B71401400546854546
:10066000138504408D290146914513850440A52139
:100670000146A14513850440B9290146C1451385AA
:1006800004409129D147631BF408B7140140054683
:100690008545138504408121014691451385044019
:1006A0001D290546A1451385044035210146C14554
:1006B000138504400D219947631BF408371401404A
:1006C000014685451305044039210546B1AA930723
:1006D0000005631BF500B7140140014685451385ED
:1006E0000440D52E054649B79307C0036310F508AB
:1006F000B71401400146854513850440E92E0146A3
:10070000914513850440C12E0146A145138504403F
:10071000D9260146C14513850440752EC54763118E
:10072000F408B71401400146854513850440652649
:100730000546914513850440792E0546A14513854C
:100740000440512E0146C14513850440692651E0FD
:10075000371401400546854513050440AD2E054676
:10076000914513050440852E0546E1A093078002BC
:100770006313F506B714014005468545138504400B
:10078000992E0546914513850440B1260146A145A1
:100790001385044089260146C14513850440252E52
:1007A000BD476318F4063714014005468545130517
:1007B000044015260546914513050440292E05469B
:1007C000A14513050440012E0146C145130504400F
:1007D00019266FF09F8DF947E316F5EAB71401402B
:1007E0000146854513850440FD2401469145138546
:1007F0000440D5240546A14513850440E92C014653
:10080000C14513850440C12CA947E316F4EA054607
:1008100029A0B1470146E319F4FE3714014085458C
:10082000130504404D2C01469145130504406524F1
:100830000146A14513050440792C054679B7EFF22E
:100840003F860545712C112A8D2B9134EFF05F9571
:1008500099659385F5DB1305703EEFF0FF9DB704B6
:10086000002085331384C40308C0E53E0840F13BF3
:1008700013052003AD2BF5B7EFF29F82371402402A
:100880001C403707FFF8414593E717001CC05C4048
:10089000F98F5CC01C403707F7FE7D17F98F1CC02D
:1008A0001C403707FCFF7D17F98F1CC05C40417767
:1008B0007D17F98F5CC0B7079F001CC4BD2C1C4C72
:1008C00093E707021CCCB717014003A707409386A4
:1008D00007401377F7F023A0E74003A7074013670B
:1008E000070823A0E74089479CCAB7F7FF1F03C545
:1008F000477D9307F00F6304F5007D893D2CB727F2
:1009000002409843C176FD16719B98C398431367C4
:10091000170098C3B7170240D843D8C3D843758F80
:10092000D8C3D843B7060001D8C39843558F98C39E
:10093000984393166700E3DD06FED843B7160240DE
:10094000719BD8C3D84313672700D8C32147DC4223
:10095000B18BE39EE7FE6FF04FF5EFF26FF43717C0
:1009600002405C43370400209146B18B130404011C
:100970006385D700A1466382D704B7376E0193879A
:1009800007601CC0B7160240DC420840918313F791
:10099000F700B707002093870700BA978C23DC4243
:1009A00093F5F50F93F707083357B50081E7EFF09C
:1009B0006FF22A8718C06FF04FEF5C43B777DC0205
:1009C000938707C07DBF01A097010020938101E7B5
:1009D000138181FC170500001305054F97F5FF1FD4
:1009E0009385456217F6FF1F1306466563FAC50037
:1009F0008322050023A0550011059105E3EAC5FEF9
:100A000017F5FF1F13058563938501816377B50093
:100A1000232005001105E36DB5FEB7220000938287
:100A20000288739002308D427390428097F2FFFFEC
:100A30009382425D93E2320073905230EFF0DFE335
:100A4000970200009382E2DF73901234730020302B
:100A5000944593F7060193F2F60081C7DC41B3E2B7
:100A6000F20083D3050093F7F30FA5C3032305001A
:100A7000611122C226C081471304800293048004BE
:100A800005473316F70033F7C3006312E602939568
:100A900027003D473317B7001347F7FF337367004D
:100AA000B395B20033E36500639D860050C98507A6
:100AB0002147E397E7FC124423206500824421018B
:100AC0008280E39696FE10C9DDB7828008456D8D61
:100AD0003335A000828019C20CC982804CC9828043
:100AE00023A4A180828083A68180854718216390FA
:100AF000F6021C31639CD7023C219A0793E707F862
:100B0000B7E600E093F7F70FBA962380F6408546E4
:100B1000935757003397E600544189CE93870704D3
:100B20008A07B7E600E0B69798C38280EDF33C21D0
:100B30009A07F9B793870706E5B7371702401C43B2
:100B40000E0593F777F05D8D08C38280EFF24FD5E5
:100B5000371702405C4391462A84B18B6385D700E6
:100B6000A1466380D708B7376E01938707601CC022
:100B7000B7160240DC42918313F7F700B707002055
:100B800093878702BA978C23DC42184093F5F50FC0
:100B900093F707083355B70081E73A85EFF08FD315
:100BA00048C008C448C4B7170240DC438D46AD8333
:100BB000FD8B13D737008A07F18BD98F13F63701D6
:100BC00013F7370063F4C600138747FFB707002009
:100BD00093874701BA978C23EFF0CFCF08C86FF007
:100BE000CFCC5C43B777DC02938707C049B799C580
:100BF000371702401C4F5D8D08CF8280B717024027
:100C0000984F1345F5FF798D88CF828099C53717A6
:100C100002405C4F5D8D48CF8280B7170240D84FAD
:100C20001345F5FF798DC8CF82801E2137370140EB
:100C3000130707C0C207C1836306E50037070040FA
:100C40006316E500BA2193F7F7F8D98FFA2193F7E5
:100C5000F7CFC207C183D98F1EA1DE215EB59E21C9
:100C60001EB5B7370140938707C06314F5009C2574
:100C70001EB985475EA982801E2189C593E71700AA
:100C80001EA18280C207C183F99BC207C183CDBF69
:100C90005E2501C6DD8D4EA5828093C5F5FFFD8DD5
:100CA000DDBF1E294A25ED8F4205418189C76D8D23
:100CB0003335A00082800145828093C5F5FFC205CF
:100CC000C1810EA98280EFF2AFBD1629F577FD171D
:100CD000F58FF621DA252111D58F1EA95625FD772E
:100CE0009387379FF58FD6212A842EC0D58F9625DE
:100CF000D58FB625D58F5EA55E29C207C18393F730
:100D0000F7CF5D8F5AA948009135B74701409387C7
:100D1000078082456312F406C2475A2413951700D0
:100D20003E9542070E0541873E958C416358070466
:100D30008605EFF02FBA930540062AC0EFF08FB971
:100D4000824793144500930540063E85EFF04FBB64
:100D50005E24C207C18763D507020E0593054006CE
:100D600013052503EFF00FB71D89C98CC204C1809C
:100D700006A461016FF06FB3B24745B78A0555BF4E
:100D800012059305400613052503EFF0AFB43D8926
:100D9000E9BF91C55E250967D98F5EA582805A2576
:100DA000F977FD17F98FD5BF93F5F51F4EA1828016
:100DB0000A216D8D3335A0008280EFF26FAEB70748
:100DC000002003A50701B7157A0093850520EFF0F1
:100DD0006FB01375F50F2387A18093175500898F86
:100DE0008A073E950E052396A1806FF00FACEFF2B7
:100DF0002FAB37F400E05C40AA85F99B5CC003D5BB
:100E0000C180EFF02FAB08C8232404001C4093E7F7
:100E100017001CC0B7F700E0D843058B75DF984377
:100E2000799B98C36FF06FA8EFF28FA77111AE8412
:100E30000144635DC402B7470140138707803A85C8
:100E40009305000432C0AD37B747014013870780D0
:100E5000024675D533878400830507001385078014
:100E60000504C205C18189370246E1B73285110107
:100E70006FF0AFA3411122C426C206C61C21AA846A
:100E80000144DC8183073100050491EFA9479305F4
:100E9000310005460145DC81413F2285B2402244B4
:100EA0009244410182800546930531000145AD3FE2
:100EB000B38784009C23DC81F1B700004E6F20646F
:040EC00061746100F8
:100EC40001020304050607080102030405060708D6
:100ED400006CDC020204060804080C100810182038
:100EE40010203040204060800102030405060708FA
:080EF4000102030405060708D2
:00000001FF
