:100000006F00F074000000004A0100004C01000085
:1000100000000000000000000000000000000000E0
:1000200000000000000000000000000000000000D0
:100030004C0F0000000000004C0F0000000000000A
:100040004C0F00004C0F00004C0F00004C0F000044
:100050004C0F00004C0F00004C0F00004C0F000034
:100060004C0F00004C0F00004C0F00004C0F000024
:100070004C0F00004C0F00004C0F00004C0F000014
:100080004C0F00004C0F00004C0F00004C0F000004
:100090004C0F00004C0F00004E010000000000005B
:1000A000511126C022C206C4828282441244A24058
:1000B000310182802A86014593F6150091C232955E
:1000C00085810606F5F9828000000000634E050276
:1000D00063C305042E86AA857D5515C285466378BF
:1000E000B6006356C00006068606E36CB6FE014500
:1000F00063E4C500918D558D85820582F5FA828075
:100100008682C93F2E8582823305A04063D70500D1
:10011000B305B040C1B7B305B0408682653F330533
:10012000A0408282868263C70500634905005D376F
:100130002E858282B305B040E35B05FE3305A04007
:10014000513F3305B0408282000001A001A08545E7
:1001500037050040EF10E00F85476318F50285452D
:1001600037050040EF10A010B707002003C7870332
:100170009387870309CF0147014693050008371588
:1001800001402380E700EF00706D730020300547C9
:100190000546E5B7EFF2DFF011651301C1FD8545B6
:1001A0001305050202C402C602C802CA02CC02CE6E
:1001B00002D002C002C2EF00B07C371401408D476C
:1001C000930400023EC62C00E147130504406484FA
:1001D0003EC8EF005060930700047C842C009147D8
:1001E000130504403EC8EF00105F896737440140A3
:1001F000938707583ECA4C08B7070C0013050480C4
:100200003ECE02CC23100102EF10400705469305B5
:10021000505213050480EF10A01685475C810A85B3
:1002200085473EC26480EF007064854513050480F5
:10023000EF104013130141028DBDEFF27FE6311143
:100240002E84AA8485450545EF0070752C0037057E
:100250000040648660842315010023170100EF002D
:10026000F0750546854537050040EF00307D930762
:1002700060527C8095475C810A8585473EC2EF00CD
:10028000F05E854537050040EF009079510131BDA2
:10029000EFF21FE131118545414502C402C602C893
:1002A000EF00106E854513050002EF00706D0D44E0
:1002B00093070008C1442C00371501407C8426C8F0
:1002C00022C6EF00505126C8B714014085472C00C4
:1002D000138504407C843EC222C6EF00D04F1147F4
:1002E000C1472C001385044078843EC822C6EF0025
:1002F000904E2147C1472C001385044078843AC0B2
:100300003EC822C6EF00304DC1477C842C00C14757
:10031000138504403EC822C6EF00F04B92472C00E4
:10032000371501407C8491473EC822C6EF00B04A91
:100330000546854537150140EF00505289469147E3
:100340002C003715014074843EC822C6EF00B04827
:100350000546894537150140EF00505091472C0064
:10036000371501407C843EC822C6EF00D0460546C2
:10037000914537150140EF00704E024791472C0020
:100380003715014078843EC822C6EF00D0440546A8
:10039000A14537150140EF00704C1305800CEF109C
:1003A00020061385044005468545EF00304B138534
:1003B000044005469145EF00704A13850440054608
:1003C000A145EF00B0490546C14513850440EF0043
:1003D000F0485101D9B9EFF2BFCC0545374401408F
:1003E000EF1000029305E00F13050480EF00B07CCE
:1003F0000545EF10E0009305E00F13050480EF00C2
:10040000907B0545EF00D07F814513050480EF0008
:10041000907A0545EF00D07E9305400913050480CE
:10042000EF0070790545EF00B07D9145130504801C
:10043000EF0070780545EF00B07C8545130504801A
:10044000EF0070770545EF00B07B8545130504800C
:10045000EF0070760545EF00B07A9305D00F1305D5
:100460000480EF0050750545EF0090793DB9EFF23B
:100470003FC3C547630DF54663CCA70AA947630987
:10048000F55863C8A7006308056A9947630BF560D0
:1004900029B9B1476304F54EBD47E31BF5FE374468
:1004A00001409305E00F13050480EF00D07005456F
:1004B000EF0010759305E00F13050480EF00B06F97
:1004C0000545EF00F073814513050480EF00B06E21
:1004D0000545EF00F0729305400913050480EF0015
:1004E000906D0545EF00D071814513050480EF0044
:1004F000906C0545EF00D070814513050480EF0036
:10050000906B0545EF00D06F930500041305048040
:10051000EF00706A0545EF00B06E9D45130504803D
:10052000EF0070690545EF00B06D93051002C5A29C
:1005300093078002630DF52863C0A70AD1476300C3
:10054000F532F947E316F5F4374401409305E00F1F
:1005500013050480EF0030660545EF00706A9305CF
:10056000E00F13050480EF0010650545EF005069AA
:10057000814513050480EF0010640545EF005068C5
:100580009305400913050480EF00F0620545EF0074
:100590003067814513050480EF00F0610545EF00E9
:1005A0003066814513050480EF00F0600545EF00DB
:1005B00030659305000613050480EF00D05F054504
:1005C000EF001064CD4513050480EF00D05E0545B3
:1005D000EF001063C14525AA930700056300F516D7
:1005E0009307000A630EF5089307C003E312F5EAC8
:1005F000374401409305E00F13050480EF00B05B22
:100600000545EF00F05F9305E00F13050480EF0050
:10061000905A0545EF00D05E814513050480EF0038
:1006200090590545EF00D05D9305400913050480FE
:10063000EF0070580545EF00B05C8145130504805C
:10064000EF0070570545EF00B05B8145130504804E
:10065000EF0070560545EF00B05A81451305048040
:10066000EF0070550545EF00B05993056003130581
:100670000480EF0050540545EF009058954541A87F
:10068000374401409305E00F13050480EF00B0529A
:100690000545EF00F0569305E00F13050480EF00C9
:1006A00090510545EF00D055814513050480EF00BA
:1006B00090500545EF00D054930540091305048080
:1006C000EF00704F0545EF00B053814513050480DE
:1006D000EF00704E0545EF00B052814513050480D0
:1006E000EF00704D0545EF00B051814513050480C2
:1006F000EF00704C0545EF00B0509305400813051E
:100700000480EF00504B0545EF00904F85451305E1
:100710000480EF00504A0545EF00904E81451305D7
:100720000480EF0050490545EF00904D9305D00F30
:1007300013050480EF003048793999BB37440140F4
:100740009305E00F13050480EF00F0460545EF0028
:10075000304B9305E00F13050480EF00D0450545AD
:10076000EF00104A814513050480EF00D044054591
:10077000EF0010499305400913050480EF00B043D2
:100780000545EF00F047814513050480EF00B042B6
:100790000545EF00F046814513050480EF00B041A8
:1007A0000545EF00F0459305000313050480EF00B5
:1007B00090400545EF00D044930570051305048073
:1007C000EF00703F0545EF00B0438D4589B73744D2
:1007D00001409305E00F13050480EF00D03D05456F
:1007E000EF0010429305E00F13050480EF00B03CCA
:1007F0000545EF00F040814513050480EF00B03B54
:100800000545EF00F03F9305400913050480EF0014
:10081000903A0545EF00D03E814513050480EF0076
:1008200090390545EF00D03D814513050480EF0068
:1008300090380545EF00D03C930500041305048073
:10084000EF0070370545EF00B03B9D451305048070
:10085000EF0070360545EF00B03A9D454DBD374479
:1008600001409305E00F13050480EF00D0340545E7
:10087000EF0010399305E00F13050480EF00B0334B
:100880000545EF00F037814513050480EF00B032D5
:100890000545EF00F0369305400913050480EF008D
:1008A00090310545EF00D035814513050480EF00F8
:1008B00090300545EF00D034814513050480EF00EA
:1008C000902F0545EF00D0339305000413050480F5
:1008D000EF00702E0545EF00B0329D4513050480F2
:1008E000EF00702D0545EF00B031D1450DB537440F
:1008F00001409305E00F13050480EF00D02B054560
:10090000EF0010309305E00F13050480EF00B02ACC
:100910000545EF00F02E814513050480EF00B02956
:100920000545EF00F02D9305400913050480EF0005
:1009300090280545EF00D02C814513050480EF0079
:1009400090270545EF00D02B814513050480EF006B
:1009500090260545EF00D02A814513050480EF005D
:1009600090250545EF00D029C14513050480EF000F
:1009700090240545EF00D028E14551BB37440140A4
:100980009305E00F13050480EF00F0220545EF000A
:1009900030279305E00F13050480EF00D0210545B3
:1009A000EF001026814513050480EF00D020054597
:1009B000EF0010259305400913050480EF00B01FD8
:1009C0000545EF00F023814513050480EF00B01EBC
:1009D0000545EF00F022814513050480EF00B01DAE
:1009E0000545EF00F0219305000513050480EF0095
:1009F000901C0545EF00D0209305100913050480D5
:100A0000EF00701B0545EF00B01F9305400201B3D6
:100A1000374401409305E00F13050480EF00B0193F
:100A20000545EF00F01D9305E00F13050480EF006E
:100A300090180545EF00D01C814513050480EF0098
:100A400090170545EF00D01B93054009130504805E
:100A5000EF0070160545EF00B01A814513050480BC
:100A6000EF0070150545EF00B019814513050480AE
:100A7000EF0070140545EF00B0189305000413054E
:100A80000480EF0050130545EF0090179D451305B6
:100A90000480EF0050120545EF0090169305800288
:100AA000BDB1374401409305E00F13050480EF000A
:100AB00090100545EF00D0149305E00F1305048056
:100AC000EF00700F0545EF00B0138145130504805A
:100AD000EF00700E0545EF00B012930540091305B5
:100AE0000480EF00500D0545EF009011814513057E
:100AF0000480EF00500C0545EF0090108145130570
:100B00000480EF00500B0545EF00900F930500089F
:100B100013050480EF00300A0545EF00700E9305C1
:100B2000100313050480EF0010090545EF00500D78
:100B300093050005E9BE371500001305C54CEF000D
:100B400090146FF0FF94EFF2AFD571118545371512
:100B5000014001232AC0894537150140DD2991450F
:100B60002A8437150140F521AA84A1453715014093
:100B7000CD21824799CB1DE49DEC1304000A11C1DD
:100B80002944228511016FF04FD219C485E813045E
:100B9000000565D91944F5B781EC1304C00375D17C
:100BA0003144C5B7014499EC69FD13048002D1BFFB
:100BB00069F97944F9B771F55144E1B7014471F12C
:100BC0004544C1B75DFD3D446DBFEFF26FCD930766
:100BD000000A2A84631DF506B714014005468545C1
:100BE00013850440A5290146914513850440BD2184
:100BF0000146A1451385044095210146C145138551
:100C00000440A929D147631BF408B71401400546E5
:100C1000854513850440992101469145138504407B
:100C200035290546A145138504400D290146C145D6
:100C30001385044025219947631BF40837140140AC
:100C4000014685451305044011290546B1AA9307BD
:100C50000005631BF500B714014001468545138567
:100C60000440ED2E054649B79307C0036310F5080D
:100C7000B71401400146854513850440C526014649
:100C8000914513850440D92E0146A14513850440A2
:100C9000F1260146C14513850440C926C5476311A5
:100CA000F408B714014001468545138504407D26AC
:100CB000054691451385044055260546A1451385F3
:100CC0000440692E0146C14513850440412E51E080
:100CD0003714014005468545130504404126054665
:100CE0009145130504409D2E0546E1A0930780021F
:100CF0006313F506B7140140054685451385044086
:100D0000B12E0546914513850440892E0146A14523
:100D100013850440A1260146C145138504403D2E9C
:100D2000BD476318F4063714014005468545130591
:100D300004402D2605469145130504400526054629
:100D4000A14513050440192E0146C1451305044071
:100D500031266FF08FB5F947E316F5EAB714014075
:100D60000146854513850440D52C014691451385E0
:100D70000440ED240546A14513850440C5240146E1
:100D8000C14513850440D92CA947E316F4EA05466A
:100D900029A0B1470146E319F4FE37140140854507
:100DA00013050440652C01469145130504407D243C
:100DB0000146A145130504405524054679B7EFF2D5
:100DC0002FAE05454D24212A1125EFF06FCCEFF011
:100DD0006FBC99659385F5DB1305703EEFF0EFC5A9
:100DE000B70400208D331384C40308C0EFF02FE84C
:100DF0000840E13B1305800C2125EDB7EFF24FAA27
:100E0000371402401C403707FFF8414593E71700AD
:100E10001CC05C40F98F5CC01C403707F7FE7D1793
:100E2000F98F1CC01C403707FCFF7D17F98F1CC0D1
:100E30005C4041777D17F98F5CC0B7079F001CC4E9
:100E400061241C4C93E707021CCCB717014003A791
:100E50000740938607401377F7F023A0E74003A7E6
:100E600007401367070823A0E74089479CCAB7F7E4
:100E7000FF1F03C5477D9307F00F6304F5007D89CD
:100E8000A124B72702409843C176FD16719B98C3F1
:100E900098431367170098C3B7170240D843D8C3C5
:100EA000D843758FD8C3D843B7060001D8C3984339
:100EB000558F98C3984393166700E3DD06FED84329
:100EC000B7160240719BD8C3D84313672700D8C315
:100ED0002147DC42B18BE39EE7FE6FF00F9DEFF2FE
:100EE0002F9C371702405C43370400209146B18B9A
:100EF000130404016385D700A1466383D704B73781
:100F00006E01938707601CC0B7160240DC420840A0
:100F1000918313F7F700B707002093870700BA976C
:100F200083C50700DC4293F5F50F93F707083357A5
:100F3000B50081E7EFF00F9A2A8718C06FF0EF969F
:100F40005C43B777DC02938707C075BF01A09701A8
:100F500000209381A18E138181FC170500001305E9
:100F6000A55797F5FF1F9385E50917F6FF1F130691
:100F7000E60C63FAC5008322050023A05500110585
:100F80009105E3EAC5FE17F5FF1F1305250B9385B1
:100F900001816377B500232005001105E36DB5FEDF
:100FA000B722000093820288739002308D427390C2
:100FB000428097F2FFFF9382E20493E23200739043
:100FC0005230EFF0BFE397020000938282DF73900C
:100FD000123473002030944593F7060193F2F60023
:100FE00081C7DC41B3E2F20083D3050093F7F30F2E
:100FF000A5C303230500611122C226C08147130443
:1010000080029304800405473316F70033F7C300CA
:101010006312E602939527003D473317B700134745
:10102000F7FF33736700B395B20033E36500639D48
:10103000860050C985072147E397E7FC1244232027
:101040006500824421018280E39696FE10C9DDB7D7
:10105000828008456D8D3335A000828019C20CC98D
:1010600082804CC9828023A4A180828083A6818053
:101070008547034705006392F60283471500639D89
:10108000D702834725009A0793E707F8B7E600E001
:1010900093F7F70FBA962380F6408546935757008B
:1010A0003397E600544191CE938707048A07B7E649
:1010B00000E0B69798C38280EDF3834725009A0736
:1010C000F1B793870706DDB7371702401C430E05BB
:1010D00093F777F05D8D08C38280EFE27FFC3717CE
:1010E00002405C4391462A84B18B6385D700A146B8
:1010F0006382D708B7376E01938707601CC0B716A5
:101100000240DC42918313F7F700B7070020938772
:101110008702BA9783C50700DC42184093F5F50FA4
:1011200093F707083355B70081E73A85EFE09FFA58
:1011300048C008C448C4B7170240DC438D46AD839D
:10114000FD8B13D737008A07F18BD98F13F6370140
:1011500013F7370063F4C600138747FFB707002073
:1011600093874701BA9783C50700EFE0BFF608C829
:101170006FE0BFF35C43B777DC02938707C0BDBF66
:1011800099C5371702401C4F5D8D08CF8280B71775
:101190000240984F1345F5FF798D88CF828099C51D
:1011A000371702405C4F5D8D48CF8280B7170240F1
:1011B000D84F1345F5FF798DC8CF8280835705003E
:1011C00037370140130707C0C207C1836306E50034
:1011D000370700406317E50003D7250093F7F7F8BA
:1011E000D98F03D7650093F7F7CFC207C183D98F93
:1011F0002310F50083D745002316F50283D7050099
:101200002314F502B7370140938707C06316F50032
:1012100083C785002318F5028547231AF5008280CD
:101220008357050091C593E717002310F5008280CE
:10123000C207C183F99BC207C183C5BF8357C500DD
:1012400009C6DD8D2316B500828093C5F5FFFD8D9F
:10125000D5BF835705010355C500ED8F4205418178
:1012600089C76D8D3335A00082800145828093C58A
:10127000F5FFC205C1812318B5008280EFE25FE26D
:1012800083560501F577FD17F58F83D6650003D7E3
:10129000C5002111D58F2318F5008356C500FD77B1
:1012A0009387379FF58F83D645002A842EC0D58F2C
:1012B00083D68500D58F83D6A500D58F2316F5005C
:1012C00083574501C207C18393F7F7CF5D8F231A78
:1012D000E50048001935B7470140938707808245EC
:1012E0006315F406C2470357C400139517003E95D3
:1012F00042070E0541873E958C41635A07048605D7
:10130000EFE05FDD930540062AC0EFE0BFDC8247D7
:1013100093144500930540063E85EFE07FDE83573A
:10132000C400C207C18763D607020E0593054006B5
:1013300013052503EFE01FDA1D89C98CC204C180A3
:101340002314940061016FE05FD6B24769BF8A053C
:1013500045BF12059305400613052503EFE09FD70F
:101360003D89E1BF81C98357C5000967D98F23161D
:10137000F50082800357C500F977FD17F98FC5BFC7
:1013800013F7F50F85471583B395B7006319F70079
:101390009307C500984301CED98D8CC382808946BE
:1013A00093074501E318D7FE93070501E5B793C5F9
:1013B000F5FFF98DDDB793F5F51F2312B500828097
:1013C000035505006D8D3335A0008280EFE25FCDBF
:1013D000B707002003A50701B7157A0093850520FC
:1013E000EFE05FCF1375F50F2387A18093175500AA
:1013F000898F8A073E950E052396A1806FE0FFCA6C
:10140000EFE21FCA37F400E05C40AA85F99B5CC09C
:1014100003D5C180EFE01FCA08C8232404001C4084
:1014200093E717001CC0B7F700E0D843058B75DFC2
:101430009843799B98C36FE05FC7EFE27FC6711155
:10144000AE840144635DC402B7470140138707803F
:101450003A859305000432C0A537B747014013878A
:101460000780024675D533878400830507001385FE
:1014700007800504C205C1813D3F0246E1B73285C0
:1014800011016FE09FC2411122C426C206C61C2171
:10149000AA840144DC8183073100050491EFA94748
:1014A0009305310005460145DC81413F2285B2406C
:1014B0002244924441018280054693053100014552
:1014C000AD3FB38784009C23DC81F1B74E6F20646D
:0414D00061746100E2
:1014D40001020304050607080102030405060708C0
:1014E400006CDC020204060804080C100810182022
:1014F40010203040204060800102030405060708E4
:081504000102030405060708BB
:00000001FF
