:100000006F00F07F00000000F2010000F40100002A
:1000100000000000000000000000000000000000E0
:1000200000000000000000000000000000000000D0
:10003000FC0F000000000000FC0F000000000000AA
:10004000FC0F0000FC0F0000FC0F0000FC0F000084
:10005000FC0F0000FC0F0000FC0F0000FC0F000074
:10006000FC0F0000FC0F0000FC0F0000FC0F000064
:10007000FC0F0000FC0F0000FC0F0000FC0F000054
:10008000FC0F0000FC0F0000FC0F0000FC0F000044
:10009000FC0F0000FC0F0000F60100000000000053
:1000A000511126C022C206C4828282441244A24058
:1000B000310182802A86014593F6150091C232955E
:1000C00085810606F5F9828000000000634E050276
:1000D00063C305042E86AA857D5515C285466378BF
:1000E000B6006356C00006068606E36CB6FE014500
:1000F00063E4C500918D558D85820582F5FA828075
:100100008682C93F2E8582823305A04063D70500D1
:10011000B305B040C1B7B305B0408682653F330533
:10012000A0408282868263C70500634905005D376F
:100130002E858282B305B040E35B05FE3305A04007
:10014000513F3305B040828200003D432A876373EC
:10015000C3029377F700BDEFADE5937606FF3D8AC6
:10016000BA960CC34CC30CC74CC74107E36BD7FE10
:1001700011E28280B306C3408A0697020000969679
:100180006780A6002307B700A306B7002306B700C1
:10019000A305B7002305B700A304B7002304B700E5
:1001A000A303B7002303B700A302B7002302B700DD
:1001B000A301B7002301B700A300B7002300B700D5
:1001C000828093F5F50F93968500D58D9396050162
:1001D000D58D61B793962700970200009696868288
:1001E000E78086FA9680C1171D8F3E96E374C3F8A8
:1001F000A5B701A001A0854537050040EF10E00F2D
:1002000085476316F502854537050040EF10A010BD
:1002100003C701819387018109CF014701469305F7
:100220000008371501402380E700EF00B06D730030
:10023000203005470546E5B7EFF29FE6116513014B
:10024000C1FD85451305050202C402C602C802CAE3
:1002500002CC02CE02D002C002C2EF00F07C371402
:1002600001408D47930400023EC62C00E147130570
:100270000440231491003EC8EF007060930700040F
:100280002314F1002C009147130504403EC8EF00F1
:10029000105F896737440140938707583ECA4C086E
:1002A000B7070C00130504803ECE02CC23100102D8
:1002B000EF10400705469305505213050480EF10D8
:1002C000A01685472301F1000A8585473EC2231009
:1002D0009100EF003064854513050480EF10001392
:1002E00013014102D9B3EFF2BFDB31112E84AA848E
:1002F00085450545EF0030752C0037050040231675
:100300009100231481002315010023170100EF0041
:1003100070750546854537050040EF00B07C9307B2
:1003200060522310F10095472301F1000A858547AB
:100330003EC2EF00305E854537050040EF00D078C3
:100340005101A5B3EFF2DFD531118545414502C416
:1003500002C602C8EF00506D854513050002EF008C
:10036000B06C0D4493070008C1442C0037150140C0
:100370002314F10026C822C6EF00705026C8B71417
:10038000014085472C00138504402314F1003EC230
:1003900022C6EF00D04E1147C1472C001385044000
:1003A0002314E1003EC822C6EF00704D2147C1472B
:1003B0002C00138504402314E1003AC03EC822C635
:1003C000EF00F04BC1472314F1002C00C147138507
:1003D00004403EC822C6EF00904A92472C003715D1
:1003E00001402314F10091473EC822C6EF00304976
:1003F0000546854537150140EF00D05089469147A5
:100400002C00371501402314D1003EC822C6EF004E
:1004100010470546894537150140EF00B04E91471A
:100420002C00371501402314F1003EC822C6EF000E
:1004300010450546914537150140EF00B04C024785
:1004400091472C00371501402314E1003EC822C615
:10045000EF00F0420546A14537150140EF00904AF4
:100460001305800CEF1040041385044005468545B4
:10047000EF0050491385044005469145EF00904830
:10048000138504400546A145EF00D0470546C14508
:1004900013850440EF001047510101B9EFF25FC02E
:1004A000054537440140EF1020009305E00F130588
:1004B0000480EF00D07A0545EF00107F9305E00F30
:1004C00013050480EF00B0790545EF00F07D81450C
:1004D00013050480EF00B0780545EF00F07C93052C
:1004E000400913050480EF0090770545EF00D07BAD
:1004F000914513050480EF0090760545EF00D07A12
:10050000854513050480EF0090750545EF00D0790F
:10051000854513050480EF0090740545EF00D07801
:100520009305D00F13050480EF0070730545EF00AD
:10053000B077A5BEEFF2DFB6C547630DF54663CCD5
:10054000A70AA9476309F55863C8A7006308056AA5
:100550009947630BF56091BEB1476304F54EBD4703
:10056000E31BF5FE374401409305E00F13050480BB
:10057000EF00F06E0545EF0030739305E00F1305B3
:100580000480EF00D06D0545EF0010728145130522
:100590000480EF00D06C0545EF0010719305400911
:1005A00013050480EF00B06B0545EF00F06F814547
:1005B00013050480EF00B06A0545EF00F06E814539
:1005C00013050480EF00B0690545EF00F06D930559
:1005D000000413050480EF0090680545EF00D06C1F
:1005E0009D4513050480EF0090670545EF00D06B33
:1005F00093051002C5A293078002630DF52863C01E
:10060000A70AD1476300F532F947E316F5F43744FA
:1006100001409305E00F13050480EF005064054589
:10062000EF0090689305E00F13050480EF0030633E
:100630000545EF007067814513050480EF003062C7
:100640000545EF0070669305400913050480EF002F
:1006500010610545EF005065814513050480EF00EA
:1006600010600545EF005064814513050480EF00DC
:10067000105F0545EF0050639305000613050480E5
:10068000EF00F05D0545EF003062CD4513050480B5
:10069000EF00F05C0545EF003061C14525AA9307E6
:1006A00000056300F5169307000A630EF50893072B
:1006B000C003E312F5EA374401409305E00F130548
:1006C0000480EF00D0590545EF00105E9305E00F60
:1006D00013050480EF00B0580545EF00F05C81453C
:1006E00013050480EF00B0570545EF00F05B93055C
:1006F000400913050480EF0090560545EF00D05ADD
:10070000814513050480EF0090550545EF00D05951
:10071000814513050480EF0090540545EF00D05843
:10072000814513050480EF0090530545EF00D05735
:100730009305600313050480EF0070520545EF0038
:10074000B056954541A8374401409305E00F130585
:100750000480EF00D0500545EF0010559305E00FE1
:1007600013050480EF00B04F0545EF00F0538145BD
:1007700013050480EF00B04E0545EF00F0529305DD
:10078000400913050480EF00904D0545EF00D0515E
:10079000814513050480EF00904C0545EF00D050D3
:1007A000814513050480EF00904B0545EF00D04FC5
:1007B000814513050480EF00904A0545EF00D04EB7
:1007C0009305400813050480EF0070490545EF00CC
:1007D000B04D854513050480EF0070480545EF00D6
:1007E000B04C814513050480EF0070470545EF00CC
:1007F000B04B9305D00F13050480EF0050467939B4
:1008000099BB374401409305E00F13050480EF00C6
:1008100010450545EF0050499305E00F130504808E
:10082000EF00F0430545EF00304881451305048093
:10083000EF00F0420545EF003047930540091305EE
:100840000480EF00D0410545EF00104681451305B7
:100850000480EF00D0400545EF00104581451305A9
:100860000480EF00D03F0545EF00104493050003DE
:1008700013050480EF00B03E0545EF00F0429305FC
:10088000700513050480EF00903D0545EF00D04151
:100890008D4589B7374401409305E00F1305048067
:1008A000EF00F03B0545EF0030409305E00F1305E6
:1008B0000480EF00D03A0545EF00103F8145130555
:1008C0000480EF00D0390545EF00103E9305400944
:1008D00013050480EF00B0380545EF00F03C81457A
:1008E00013050480EF00B0370545EF00F03B81456C
:1008F00013050480EF00B0360545EF00F03A93058C
:10090000000413050480EF0090350545EF00D03951
:100910009D4513050480EF0090340545EF00D03865
:100920009D454DBD374401409305E00F13050480FC
:10093000EF00F0320545EF0030379305E00F130567
:100940000480EF00D0310545EF00103681451305D6
:100950000480EF00D0300545EF00103593054009C5
:1009600013050480EF00B02F0545EF00F0338145FB
:1009700013050480EF00B02E0545EF00F0328145ED
:1009800013050480EF00B02D0545EF00F03193050D
:10099000000413050480EF00902C0545EF00D030D3
:1009A0009D4513050480EF00902B0545EF00D02FE7
:1009B000D1450DB5374401409305E00F1305048080
:1009C000EF00F0290545EF00302E9305E00F1305E9
:1009D0000480EF00D0280545EF00102D8145130558
:1009E0000480EF00D0270545EF00102C9305400947
:1009F00013050480EF00B0260545EF00F02A81457D
:100A000013050480EF00B0250545EF00F02981456E
:100A100013050480EF00B0240545EF00F028814560
:100A200013050480EF00B0230545EF00F027C14512
:100A300013050480EF00B0220545EF00F026E145E4
:100A400051BB374401409305E00F13050480EF00CC
:100A500010210545EF0050259305E00F1305048094
:100A6000EF00F01F0545EF00302481451305048099
:100A7000EF00F01E0545EF003023930540091305F4
:100A80000480EF00D01D0545EF00102281451305BD
:100A90000480EF00D01C0545EF00102181451305AF
:100AA0000480EF00D01B0545EF00102093050005E2
:100AB00013050480EF00B01A0545EF00F01E930502
:100AC000100913050480EF0090190545EF00D01DB3
:100AD0009305400201B3374401409305E00F13052D
:100AE0000480EF00D0170545EF00101C9305E00FC0
:100AF00013050480EF00B0160545EF00F01A81459C
:100B000013050480EF00B0150545EF00F0199305BB
:100B1000400913050480EF0090140545EF00D0183C
:100B2000814513050480EF0090130545EF00D017B1
:100B3000814513050480EF0090120545EF00D016A3
:100B40009305000413050480EF0070110545EF00C4
:100B5000B0159D4513050480EF0070100545EF00AA
:100B6000B01493058002BDB1374401409305E00FF6
:100B700013050480EF00B00E0545EF00F012930559
:100B8000E00F13050480EF00900D0545EF00D01134
:100B9000814513050480EF00900C0545EF00D0104F
:100BA0009305400913050480EF00700B0545EF0025
:100BB000B00F814513050480EF00700A0545EF0072
:100BC000B00E814513050480EF0070090545EF0064
:100BD000B00D9305000813050480EF00500805458B
:100BE000EF00900C9305100313050480EF0030070D
:100BF0000545EF00700B93050005E9BE37250000A1
:100C00001305C506EF0030226FF0FF94EFF24FC9D5
:100C10007111854537150140CD212AC08945371509
:100C20000140E1299145AA8437150140F9212A8420
:100C3000A14537150140D121824781CF95E8D147A1
:100C400009E49307000A11C1A9473E8511016FF01D
:100C5000CFC581C8C54775F8930700057DD599476D
:100C6000EDB7F9477DF09307C00365D1B147F1BFF8
:100C70009307800279D8BD4769D98147F9B7EFF268
:100C80002FC29307000A2A84631DF506B71401409A
:100C90000546854513850440B521014691451385D8
:100CA00004408D210146A14513850440A129014638
:100CB000C14513850440B921D147631BF408B7141B
:100CC000014005468545138504402D29014691457F
:100CD0001385044005290546A145138504401D21BF
:100CE0000146C1451385044031299947631BF40827
:100CF000371401400146854513050440212105466E
:100D0000B1AA93070005631BF500B7140140014623
:100D1000854513850440FD26054649B79307C00362
:100D20006310F508B714014001468545138504405A
:100D3000D12E0146914513850440E9260146A1457F
:100D400013850440C1260146C145138504405D2E2C
:100D5000C5476311F408B714014001468545138562
:100D600004404D260546914513850440612E0546F5
:100D7000A1451385044079260146C14513850440E9
:100D8000512651E0371401400546854513050440BE
:100D9000952E0546914513050440AD260546E1A074
:100DA000930780026313F506B71401400546854595
:100DB00013850440812E05469145138504409926EC
:100DC0000146A14513850440352E0146C1451385D2
:100DD00004400D2EBD476318F40637140140054644
:100DE000854513050440392E0546914513050440F9
:100DF000112E0546A1451305044029260146C1458B
:100E00001305044001266FF04FAAF947E316F5EAEF
:100E1000B71401400146854513850440E524014689
:100E2000914513850440F92C0546A14513850440DE
:100E3000D12C0146C14513850440E924A947E31696
:100E4000F4EA054629A0B1470146E319F4FE371438
:100E5000014085451305044075240146914513055D
:100E600004404D240146A14513050440612C05466C
:100E700079B7EFF2EFA20545592C112AE52BEFF0D7
:100E80006FCCEFF06FBB99659385F5DB1305703E72
:100E9000EFF06FC5A53B1384418108C0EFF08FE9E7
:100EA0000840F13B1305803E0125EDB7EFF24F9F5F
:100EB000371402401C403707FFF8414593E71700FD
:100EC0001CC05C40F98F5CC01C403707F7FE7D17E3
:100ED000F98F1CC01C403707FCFF7D17F98F1CC021
:100EE0005C4041777D17F98F5CC0B7079F001CC439
:100EF00041241C4C93E707021CCCB717014003A701
:100F00000740938607401377F7F023A0E74003A735
:100F100007401367070823A0E74089479CCAB7F733
:100F2000FF1F03C5477D9307F00F6304F5007D891C
:100F30008124B72702409843C176FD16719B98C360
:100F400098431367170098C3B7170240D843D8C314
:100F5000D843758FD8C3D843B7060001D8C3984388
:100F6000558F98C3984393166700E3DD06FED84378
:100F7000B7160240719BD8C3D84313672700D8C364
:100F80002147DC42B18BE39EE7FE6FF00F92EFF258
:100F90002F91371702405C43370400209146B18BF4
:100FA000130404016385D700A1466383D704B737D0
:100FB0006E01938707601CC0B7160240DC420840F0
:100FC000918313F7F700B707002093870700BA97BC
:100FD00083C50700DC4293F5F50F93F707083357F5
:100FE000B50081E7EFF00F8F2A8718C06FF0EF8B05
:100FF0005C43B777DC02938707C075BF01A09701F8
:1010000000209381218A138101F617150000130532
:10101000A50C97F5FF1F9385E5FE1386818063FA83
:10102000C5008322050023A0550011059105E3EAC0
:10103000C5FE13858180938541826377B5002320A7
:1010400005001105E36DB5FEB7220000938202880A
:10105000739002308D427390428097F2FFFF93822B
:1010600062FA93E2320073905230EFF03FE497025D
:101070000000938242E07390123473002030944554
:1010800093F7060193F2F60081C7DC41B3E2F20068
:1010900083D3050093F7F30FA5C303230500611164
:1010A00022C226C0814713048002930480040547AE
:1010B0003316F70033F7C3006312E6029395270057
:1010C0003D473317B7001347F7FF33736700B395F6
:1010D000B20033E36500639D860050C98507214750
:1010E000E397E7FC124423206500824421018280BB
:1010F000E39696FE10C9DDB7828008456D8D3335C5
:10110000A000828019C20CC982804CC9828023ACA5
:10111000A180828083A68181854703470500639271
:10112000F60283471500639DD702834725009A077F
:1011300093E707F8B7E600E093F7F70FBA96238036
:10114000F6408546935757003397E600544191CEB9
:10115000938707048A07B7E600E0B69798C38280B2
:10116000EDF3834725009A07F1B793870706DDB7AC
:10117000371702401C430E0593F777F05D8D08C3C7
:101180008280EFE2FFF1371702405C4391462A84E8
:10119000B18B6385D700A1466382D708B7376E014C
:1011A000938707601CC0B7160240DC42918313F797
:1011B000F700B707002093878702BA9783C5070017
:1011C000DC42184093F5F50F93F707083355B70045
:1011D00081E73A85EFE01FF048C008C448C4B7175C
:1011E0000240DC438D46AD83FD8B13D737008A0761
:1011F000F18BD98F13F6370113F7370063F4C6006C
:10120000138747FFB707002093874701BA9783C525
:101210000700EFE03FEC08C86FE03FE95C43B777B9
:10122000DC02938707C0BDBF99C5371702401C4F2A
:101230005D8D08CF8280B7170240984F1345F5FFA8
:10124000798D88CF828099C5371702405C4F5D8DBC
:1012500048CF8280B7170240D84F1345F5FF798DEC
:10126000C8CF82808357050037370140130707C076
:10127000C207C1836306E500370700406317E50036
:1012800003D7250093F7F7F8D98F03D7650093F7B5
:10129000F7CFC207C183D98F2310F50083D745004C
:1012A0002316F50283D705002314F502B737014052
:1012B000938707C06316F50083C785002318F502DE
:1012C0008547231AF50082808357050091C593E76F
:1012D00017002310F5008280C207C183F99BC20763
:1012E000C183C5BF8357C50009C6DD8D2316B50070
:1012F000828093C5F5FFFD8DD5BF8357050103554A
:10130000C500ED8F4205418189C76D8D3335A00041
:1013100082800145828093C5F5FFC205C1812318F3
:10132000B5008280EFE2DFD783560501F577FD1720
:10133000F58F83D6650003D7C5002111D58F2318FB
:10134000F5008356C500FD779387379FF58F83D6C9
:1013500045002A842EC0D58F83D68500D58F83D6AD
:10136000A500D58F2316F50083574501C207C18319
:1013700093F7F7CF5D8F231AE50048001935B7477B
:1013800001409387078082456315F406C2470357DF
:10139000C400139517003E9542070E0541873E9500
:1013A0008C41635A07048605EFE0DFD293054006BF
:1013B0002AC0EFE03FD282479314450093054006D0
:1013C0003E85EFE0FFD38357C400C207C18763D6D1
:1013D00007020E059305400613052503EFE09FCF96
:1013E0001D89C98CC204C1802314940061016FE07F
:1013F000DFCBB24769BF8A0545BF1205930540069A
:1014000013052503EFE01FCD3D89E1BF81C9835757
:10141000C5000967D98F2316F50082800357C500E0
:10142000F977FD17F98FC5BF13F7F50F85471583BA
:10143000B395B7006319F7009307C500984301CE31
:10144000D98D8CC38280894693074501E318D7FE66
:1014500093070501E5B793C5F5FFF98DDDB793F562
:10146000F51F2312B5008280035505006D8D3335BD
:10147000A0008280EFE2DFC2B707002003A50701CA
:10148000B7157A0093850520EFE0DFC41375F50FDB
:10149000238FA18093175500898F8A073E950E05EB
:1014A000239EA1806FE07FC0EFE29FBF37F400E092
:1014B0005C40AA85F99B5CC003D5C181EFE09FBF6A
:1014C00008C8232404001C4093E717001CC0B7F78A
:1014D00000E0D843058B75DF9843799B98C36FE094
:1014E000DFBCEFE2FFBB7111AE840144635DC40257
:1014F000B7470140138707803A859305000432C03F
:10150000A537B747014013870780024675D5338753
:10151000840083050700138507800504C205C18187
:101520003D3F0246E1B7328511016FE01FB8370732
:101530000020130787031C43938641823E9563690D
:10154000D500938601E663E5A60008C33E85828048
:10155000FD57EDBF411126C206C622C42EC0AA8483
:1015600001C5184D11E3F529984C804419E32685EF
:10157000CD2917170000130727B26313E402C040F8
:101580000357C400218B19C3184829EFA28526856B
:10159000B52229C97D55B24022449244410182803E
:1015A00017170000130747B16314E4008044C9BF54
:1015B00017170000130747ACE314E4FCC044C9B795
:1015C000824718C485073EC063580700144C634D1A
:1015D000D7022947638AE50218409306170014C012
:1015E0002300B7008247184483C507007D17E9F937
:1015F00018C4635207022286A94526852528FD576F
:10160000E30AF5F8294541BF2286268525207D5726
:10161000E31AE5FC41B71C401387170018C029479F
:101620002380E700C5B797F7FF1F9387A7A7AA8571
:1016300088430DB7311122C626C406C8AA87AE84D6
:10164000328411C5184D01E72AC021298247171796
:101650000000130767A4631BE406C043184C18C4BA
:101660000357C400218B59C3184849C31848084080
:1016700093F6F40F93F4F40F198D5848634AE5007C
:101680003E85A28536C23EC06D2C824792462DE52E
:10169000184405057D1718C418401306170010C01C
:1016A0002300D70058486309A7000357C400058BDF
:1016B00001CB29476396E400A2853E8559240DEDB0
:1016C000C24032442685A24451018280171700008F
:1016D0001307879E6314E400804749B7171700007B
:1016E00013078799E31CE4F6C0478DBF3E85A285AA
:1016F0003EC0292082473DD9FD54D9B7411197F703
:10170000FF1F9387279A26C2844322C406C6AA864F
:101710002E8499C49C4C89E72AC026859926824646
:101720009717000093874797631AF402C040031786
:10173000C40093170701C18313F6870035EE13F633
:1017400007010DEEA5479CC2136707042316E400AA
:101750007D55B24022449244410182809717000097
:10176000938787956314F4008044D1B797170000DE
:1017700093878790E31DF4FAC04455BF918B9DC7B2
:101780004C5899C9930744046386F500368536C0E2
:101790001D2B8246232A04028357C40023220400FF
:1017A00093F7B7FD2316F4001C481CC08357C400F0
:1017B00093E787002316F4001C4881EF8357C40089
:1017C0001307002093F707286385E700A285368575
:1017D000B1298357C40013F7170005C75C482324B9
:1017E0000400B307F0401CCC1C480145BDF383172F
:1017F000C40013F7070831DF93E707042316F4004A
:1018000081BF898B014791E3584818C4F1BF83D643
:10181000C500311122C606C826C413F78600AA8760
:101820002E8469EFD841634BE000B8416348E00083
:101830000145C2403244A2445101828058546DDBBC
:1018400084431396360123A00700635E06067048A2
:101850000357C400118B19C75840198E585819C323
:101860003840198E58540C5081463E853EC0029730
:101870007D578356C4008247631DE500904375473A
:101880006368C7063707402005073357C700058B35
:1018900025C318482322040018C013973601635843
:1018A00007007D576314E500984311E368C84C585E
:1018B00084C3BDDD130744046384E5003E85212114
:1018C000232A0402B5B70C5001463E8585463EC02A
:1018D00002977D572A868247E31CE5F698432DDB65
:1018E000F5466305D700D9466313D70484C389B787
:1018F00093E606042316D4007D5525BF98490DDBD9
:1019000084418D8A98C1998C014691E2D04910C4D6
:10191000E35090F2032384020C503A863E85A6865B
:101920003AC23EC00293824712476349A0008357E0
:10193000C40093E707042316F4007DBF2A97898C1F
:10194000C1BF9C49B9CF411122C406C62A8411C522
:101950001C4D81E72EC031228245970700009387F6
:10196000A773639BF5004C408397C50095C72285FC
:101970002244B240410161BD970700009387C773BD
:101980006394F5000C44CDB7970700009387C76EAA
:10199000E39CF5FC4C44C9BFB240224401454101DF
:1019A000828001458280511122C206C42A842316F6
:1019B000B5002317C500232005002322050023249A
:1019C00005002322050623280500232A0500232CD1
:1019D0000500214681451305C505EFE00FF7970780
:1019E0000000938727495CD0970700009387874BB7
:1019F0001CD4970700009387C74F5CD4970700005B
:101A00009387875200D01CD8A240124431018280B3
:101A100097050000938525F389AA41111386F5FFE8
:101A200022C41314160032940A0432940E042EC0F9
:101A30009305440726C206C62D2EAA8409CD8247E7
:101A4000232005003105232CF5FE88C413068406E7
:101A50008145EFE08FEFB240224426859244410158
:101A600082801C4DBDE3511106C422C297070000BD
:101A7000938747FA1CD597E7FF1F9387E7629C433C
:101A80002324050423260504232805046314F500F4
:101A900085471CCD2A841D2848C02285052808C4F6
:101AA00022852D2048C4484001469145ED3D08441B
:101AB0000546A545CD3D48440946C945ED35854710
:101AC0001CCCA2401244310182808280411197E7F0
:101AD000FF1F9387675D22C4804326C206C61C4C45
:101AE000AA8499E32285B53F930784048047D843AD
:101AF0007D1763560700984331CF9C43C5BF8316BB
:101B0000C400B1E6C1778507232204062320040020
:101B100023220400232404005CC423280400232A75
:101B20000400232C0400214681451305C405EFE081
:101B3000CFE1232A0402232C0402232404042326B5
:101B400004042285B240224492444101828013045D
:101B5000840679BF914526853EC0C135824788C33A
:101B600049FDB1479CC00144E9BF111122CA06CC0E
:101B700026C8AA862E8613048504814719E4E2400C
:101B80005244C2443E8571018280044458407D170E
:101B9000635407000040DDB703D5C400854563F3F7
:101BA000A5020395E400FD55630EB5003685A685B4
:101BB0003EC63AC436C232C00296B2472247924667
:101BC0000246C98F93848406D9B7AE878395E50012
:101BD0005971A6D286D6A2D4B28463DC050083D71D
:101BE000C70023A0060093F7070885EB9307004082
:101BF0003DA01304F1006198228636C23EC04926FA
:101C000082479246E34D05FC5840BD67F98F7977CE
:101C1000BA9793B717009CC2D1BF93070004B65080
:101C200026549CC0014596546561828003D7C50047
:101C3000211122C806CA26C6098B2E8401CF93071C
:101C400074041CC01CC885475CC8D2404244B244DE
:101C50006101828034005000AA84853F92452AC0E9
:101C60002685012A01ED8317C40013F7072071FFB1
:101C7000F19B93E727002316F400D1B71707000064
:101C8000130747D998D40357C40008C008C813677E
:101C900007082316E400124758C8224709CF8315C6
:101CA000E4002685192601C98357C400F19B93E7F8
:101CB00017002316F4008357C4000247B364F700EB
:101CC0002316940059B7CDC583A7C5FF511122C271
:101CD00006C426C01384C5FF63D307003E94AA84BC
:101CE000392E97E7FF1F9387673C9C4389EF232298
:101CF000040097E7FF1F23AB873A1244A2402685D2
:101D000082443101F5AC637EF40014403307D40003
:101D10006396E7009843DC43369718C05CC0D1BF98
:101D2000BA87D84319C3E37DE4FE94433386D700D2
:101D3000631F86001040B29694C33386D700E31E1B
:101D4000C7FA10435843B29694C3D8C37DB763759E
:101D5000C400B1479CC055B71040B306C400631619
:101D6000D70014435843B29614C058C0C0C371B7CB
:101D70008280411126C293843500F19806C622C4A0
:101D8000A104B14763F5F404B14463E4B4042AC088
:101D9000BD241387818014438247368439E013873A
:101DA000C180184301EB3E8581453EC0692823A6CA
:101DB000A18082473E85A6853EC071207D5782471F
:101DC0006314E506314798C33E851D2C29A0E3DE48
:101DD00004FAB1471CC10145B2402244924441017A
:101DE00082801840058F634E07022D466376E60019
:101DF00018C03A9404C031A058406392860223A4CC
:101E0000E1803E85F52A1305B4001307440061996B
:101E1000B307E540F1D33E94098F18C075BFD8C20F
:101E2000CDB7A28640409DBF130435007198E303EF
:101E300085FCB305A4403E853EC031207D578247D6
:101E4000E31AE5FA41B7511122C22A842E8523A054
:101E5000018206C4EFF0AFEDFD576317F5009387DD
:101E600001829C4391C31CC0A24012443101828074
:101E7000511122C22E848395E50006C4592263497C
:101E800005007C48AA977CC8A24012443101828098
:101E90008357C4007D777D17F98F2316F400EDB7C3
:101EA00083D7C500311122C626C406C893F7071090
:101EB000AA842E843283B68291CB8395E50036C204
:101EC00032C0894601463122924202438357C40000
:101ED0007D777D17F98F2316F4008315E4003244D3
:101EE000C2402685A24496861A8651013DA851110A
:101EF00022C22E848395E50006C4E128FD570357CE
:101F0000C400631BF500FD77FD17F98F2316F4005D
:101F1000A2401244310182808567D98F2316F400D4
:101F200068C8FDB78395E50005A8511122C22A842F
:101F30002E85B285368623A0018206C4EFF06FDAC3
:101F4000FD576317F500938701829C4391C31CC022
:101F5000A240124431018280511122C22A842E856E
:101F600023A0018206C4E120FD576317F500938783
:101F700001829C4391C31CC0A24012443101828063
:101F8000511122C22A842E85B28523A0018206C463
:101F90006D20FD576317F500938701829C4391C321
:101FA0001CC0A240124431018280511122C22A84F5
:101FB0002E8523A0018206C47920FD576317F50002
:101FC000938701829C4391C31CC0A24012443101FB
:101FD0008280511122C22A842E85B285368623A0A2
:101FE000018206C4BD20FD576317F5009387018267
:101FF0009C4391C31CC0A240124431018280828064
:102000008280511122C22A842E85B285368623A071
:10201000018206C4A920FD576317F500938701824A
:102020009C4391C31CC0A24012443101828093079B
:10203000800523A0F1827D5582809307800523A02F
:10204000F1827D5582809307800523A0F1820145AE
:1020500082809307800523A0F1827D5582809307BB
:10206000800523A0F1827D55828000004E6F2064A0
:10207000617461000000000000000000000000002A
:102080000000000000000000000000000000000050
:102090000000000000000000000000000000000040
:1020A0000000000000000000000000000000000030
:1020B0000000000000000000000000000000000020
:1020C0000000000000000000000000000000000010
:0420D000000000000C
:1020D40001020304050607080102030405060708B4
:1020E400006CDC020204060804080C100810182016
:1020F40010203040204060800102030405060708D8
:102104000102030405060708C400002000000000C3
:1021140094200000B420000074200000000000009F
:1021240000000000000000000000000000000000AB
:10213400000000000000000000000000000000009B
:10214400000000000000000000000000000000008B
:10215400000000000000000000000000000000007B
:10216400000000000000000000000000000000006B
:082174003C0000203C000020AB
:00000001FF
